:100000000C9446000C945D000C945D000C945D0013
:100010000C945D000C945D000C945D000C945D00EC
:100020000C945D000C945D000C945D000C945D00DC
:100030000C945D000C945D000C945D000C945D00CC
:100040000C945D000C945D000C945D000C945D00BC
:100050000C945D000C945D000C945D000C945D00AC
:100060000C945D000C945D000C945D000C945D009C
:100070000C945D000C945D000C945D000C945D008C
:100080000C945D000C945D000C945D0011241FBE67
:10009000CFEFD0E4DEBFCDBF11E0A0E0B1E0EEEEE7
:1000A000F2E000E00BBF02C007900D92AE30B10746
:1000B000D9F70E9499000C9475010C940000CF931D
:1000C000DF9300D01F92CDB7DEB789837B836A832D
:1000D00089818A3031F48A819B81BC018DE00E9444
:1000E0005F0080EC90E0FC018081882F90E08072BE
:1000F0009927892BB1F386EC90E02981FC012083BC
:1001000080E090E00F900F900F90DF91CF910895D5
:10011000CF93DF93CDB7DEB78AE790E02AE730E0F0
:10012000F9012081206EFC0120830000DF91CF9136
:100130000895CF93DF9300D000D000D0CDB7DEB7C5
:1001400081E290E0FC01108282E290E02FEFFC015E
:10015000208384E290E02FEFFC01208385E290E091
:10016000FC0110820E94880080E092E09A838983DB
:1001700089819A8196958795969587959695879585
:100180009C838B8388E790E0FC01808191819E8332
:100190008D832D813E818B819C812817390728F022
:1001A00085E290E021E0FC0120838B819C819C0111
:1001B000220F331F8D819E818217930748F085E2BD
:1001C00090E025E230E0F90120812260FC012083EB
:1001D0002B813C81C901880F991F280F391F8D8100
:1001E0009E818217930748F085E290E025E230E097
:1001F000F90120812460FC0120838B819C819C017A
:10020000220F331F220F331F8D819E818217930788
:1002100048F085E290E025E230E0F9012081286095
:10022000FC0120832B813C81C901880F991F880F15
:10023000991F280F391F8D819E818217930748F0DF
:1002400085E290E025E230E0F90120812061FC01A7
:1002500020832B813C81C901880F991F820F931F36
:10026000880F991F9C018D819E818217930748F00A
:1002700085E290E025E230E0F90120812062FC0176
:1002800020832B813C81C901880F991F880F991FFA
:10029000880F991FAC01421B530B9A018D819E81DF
:1002A0008217930748F085E290E025E230E0F901FB
:1002B00020812064FC0120838B819C819C01220F82
:1002C000331F220F331F220F331F8D819E81821710
:1002D000930708F457CF85E290E025E230E0F9017A
:0E02E00020812068FC0120834DCFF894FFCFD1
:0E02EE0000000002000000005F0000000000A1
:00000001FF
